{
  "contractName": "HumanIdentityBasic",
  "abi": [
    {
      "constant": true,
      "inputs": [
        {
          "name": "",
          "type": "bytes32"
        }
      ],
      "name": "verifications",
      "outputs": [
        {
          "name": "oracleNonce",
          "type": "string"
        },
        {
          "name": "confidenceResult",
          "type": "uint256"
        },
        {
          "name": "user",
          "type": "address"
        },
        {
          "name": "threshold",
          "type": "uint256"
        },
        {
          "name": "timestamp",
          "type": "uint256"
        },
        {
          "name": "identityProvider",
          "type": "address"
        }
      ],
      "payable": false,
      "stateMutability": "view",
      "type": "function"
    },
    {
      "constant": true,
      "inputs": [
        {
          "name": "",
          "type": "address"
        }
      ],
      "name": "verificationCounts",
      "outputs": [
        {
          "name": "",
          "type": "uint256"
        }
      ],
      "payable": false,
      "stateMutability": "view",
      "type": "function"
    },
    {
      "constant": true,
      "inputs": [],
      "name": "confidenceThreshold",
      "outputs": [
        {
          "name": "",
          "type": "uint256"
        }
      ],
      "payable": false,
      "stateMutability": "view",
      "type": "function"
    },
    {
      "constant": true,
      "inputs": [],
      "name": "owner",
      "outputs": [
        {
          "name": "",
          "type": "address"
        }
      ],
      "payable": false,
      "stateMutability": "view",
      "type": "function"
    },
    {
      "constant": true,
      "inputs": [
        {
          "name": "",
          "type": "address"
        }
      ],
      "name": "registrations",
      "outputs": [
        {
          "name": "timestamp",
          "type": "uint256"
        },
        {
          "name": "identityProvider",
          "type": "address"
        },
        {
          "name": "oracleNonce",
          "type": "string"
        },
        {
          "name": "registered",
          "type": "bool"
        }
      ],
      "payable": false,
      "stateMutability": "view",
      "type": "function"
    },
    {
      "constant": true,
      "inputs": [],
      "name": "identityProvider",
      "outputs": [
        {
          "name": "",
          "type": "address"
        }
      ],
      "payable": false,
      "stateMutability": "view",
      "type": "function"
    },
    {
      "constant": true,
      "inputs": [
        {
          "name": "",
          "type": "bytes32"
        }
      ],
      "name": "verificationAttempts",
      "outputs": [
        {
          "name": "",
          "type": "bool"
        }
      ],
      "payable": false,
      "stateMutability": "view",
      "type": "function"
    },
    {
      "constant": false,
      "inputs": [
        {
          "name": "newOwner",
          "type": "address"
        }
      ],
      "name": "transferOwnership",
      "outputs": [],
      "payable": false,
      "stateMutability": "nonpayable",
      "type": "function"
    },
    {
      "anonymous": false,
      "inputs": [
        {
          "indexed": true,
          "name": "previousOwner",
          "type": "address"
        },
        {
          "indexed": true,
          "name": "newOwner",
          "type": "address"
        }
      ],
      "name": "OwnershipTransferred",
      "type": "event"
    },
    {
      "anonymous": false,
      "inputs": [
        {
          "indexed": true,
          "name": "sender",
          "type": "address"
        },
        {
          "indexed": false,
          "name": "oracleNonce",
          "type": "string"
        },
        {
          "indexed": false,
          "name": "success",
          "type": "bool"
        }
      ],
      "name": "RegisterUser",
      "type": "event"
    },
    {
      "anonymous": false,
      "inputs": [
        {
          "indexed": true,
          "name": "sender",
          "type": "address"
        },
        {
          "indexed": false,
          "name": "oracleNonce",
          "type": "string"
        },
        {
          "indexed": false,
          "name": "confidenceResult",
          "type": "uint256"
        },
        {
          "indexed": false,
          "name": "success",
          "type": "bool"
        }
      ],
      "name": "VerifyUser",
      "type": "event"
    },
    {
      "anonymous": false,
      "inputs": [
        {
          "indexed": false,
          "name": "oldProvider",
          "type": "address"
        },
        {
          "indexed": false,
          "name": "newProvider",
          "type": "address"
        }
      ],
      "name": "IdentityProviderUpdated",
      "type": "event"
    },
    {
      "anonymous": false,
      "inputs": [
        {
          "indexed": false,
          "name": "oldThreshold",
          "type": "uint256"
        },
        {
          "indexed": false,
          "name": "newThreshold",
          "type": "uint256"
        }
      ],
      "name": "ConfidenceThresholdUpdated",
      "type": "event"
    },
    {
      "constant": false,
      "inputs": [
        {
          "name": "oracleNonce",
          "type": "string"
        },
        {
          "name": "confidenceResult",
          "type": "uint256"
        },
        {
          "name": "user",
          "type": "address"
        },
        {
          "name": "r",
          "type": "bytes32"
        },
        {
          "name": "s",
          "type": "bytes32"
        },
        {
          "name": "v",
          "type": "uint8"
        }
      ],
      "name": "register",
      "outputs": [
        {
          "name": "success",
          "type": "bool"
        }
      ],
      "payable": false,
      "stateMutability": "nonpayable",
      "type": "function"
    },
    {
      "constant": false,
      "inputs": [
        {
          "name": "oracleNonce",
          "type": "string"
        },
        {
          "name": "confidenceResult",
          "type": "uint256"
        },
        {
          "name": "user",
          "type": "address"
        },
        {
          "name": "r",
          "type": "bytes32"
        },
        {
          "name": "s",
          "type": "bytes32"
        },
        {
          "name": "v",
          "type": "uint8"
        }
      ],
      "name": "verify",
      "outputs": [
        {
          "name": "success",
          "type": "bool"
        }
      ],
      "payable": false,
      "stateMutability": "nonpayable",
      "type": "function"
    },
    {
      "constant": false,
      "inputs": [
        {
          "name": "newIdentityProvider",
          "type": "address"
        }
      ],
      "name": "updateIdentityProvider",
      "outputs": [],
      "payable": false,
      "stateMutability": "nonpayable",
      "type": "function"
    },
    {
      "constant": false,
      "inputs": [
        {
          "name": "newThreshold",
          "type": "uint256"
        }
      ],
      "name": "updateConfidenceThreshold",
      "outputs": [],
      "payable": false,
      "stateMutability": "nonpayable",
      "type": "function"
    }
  ],
  "bytecode": "0x606060405233600660006101000a81548173ffffffffffffffffffffffffffffffffffffffff021916908373ffffffffffffffffffffffffffffffffffffffff1602179055506119ad806100546000396000f3006060604052600436106100ba576000357c0100000000000000000000000000000000000000000000000000000000900463ffffffff16806310c74e16146100bf57806325b4ca6c146101da5780632d1e8af61461022757806339c2f6b2146102505780635ff162f6146103135780638da5cb5b14610336578063942e6bcf1461038b578063a724034514610482578063c16a02a914610545578063c573a27a1461057e578063d7af401b146105d3578063f2fde38b14610612575b600080fd5b34156100ca57600080fd5b6100e460048080356000191690602001909190505061064b565b60405180806020018781526020018673ffffffffffffffffffffffffffffffffffffffff1673ffffffffffffffffffffffffffffffffffffffff1681526020018581526020018481526020018373ffffffffffffffffffffffffffffffffffffffff1673ffffffffffffffffffffffffffffffffffffffff168152602001828103825288818151815260200191508051906020019080838360005b8381101561019a57808201518184015260208101905061017f565b50505050905090810190601f1680156101c75780820380516001836020036101000a031916815260200191505b5097505050505050505060405180910390f35b34156101e557600080fd5b610211600480803573ffffffffffffffffffffffffffffffffffffffff1690602001909190505061075f565b6040518082815260200191505060405180910390f35b341561023257600080fd5b61023a610777565b6040518082815260200191505060405180910390f35b341561025b57600080fd5b6102f9600480803590602001908201803590602001908080601f0160208091040260200160405190810160405280939291908181526020018383808284378201915050505050509190803590602001909190803573ffffffffffffffffffffffffffffffffffffffff16906020019091908035600019169060200190919080356000191690602001909190803560ff1690602001909190505061077d565b604051808215151515815260200191505060405180910390f35b341561031e57600080fd5b6103346004808035906020019091905050610ca1565b005b341561034157600080fd5b610349610d58565b604051808273ffffffffffffffffffffffffffffffffffffffff1673ffffffffffffffffffffffffffffffffffffffff16815260200191505060405180910390f35b341561039657600080fd5b6103c2600480803573ffffffffffffffffffffffffffffffffffffffff16906020019091905050610d7e565b604051808581526020018473ffffffffffffffffffffffffffffffffffffffff1673ffffffffffffffffffffffffffffffffffffffff1681526020018060200183151515158152602001828103825284818151815260200191508051906020019080838360005b83811015610444578082015181840152602081019050610429565b50505050905090810190601f1680156104715780820380516001836020036101000a031916815260200191505b509550505050505060405180910390f35b341561048d57600080fd5b61052b600480803590602001908201803590602001908080601f0160208091040260200160405190810160405280939291908181526020018383808284378201915050505050509190803590602001909190803573ffffffffffffffffffffffffffffffffffffffff16906020019091908035600019169060200190919080356000191690602001909190803560ff16906020019091905050610e73565b604051808215151515815260200191505060405180910390f35b341561055057600080fd5b61057c600480803573ffffffffffffffffffffffffffffffffffffffff16906020019091905050611377565b005b341561058957600080fd5b61059161150a565b604051808273ffffffffffffffffffffffffffffffffffffffff1673ffffffffffffffffffffffffffffffffffffffff16815260200191505060405180910390f35b34156105de57600080fd5b6105f860048080356000191690602001909190505061152f565b604051808215151515815260200191505060405180910390f35b341561061d57600080fd5b610649600480803573ffffffffffffffffffffffffffffffffffffffff1690602001909190505061154f565b005b6003602052806000526040600020600091509050806000018054600181600116156101000203166002900480601f0160208091040260200160405190810160405280929190818152602001828054600181600116156101000203166002900480156106f75780601f106106cc576101008083540402835291602001916106f7565b820191906000526020600020905b8154815290600101906020018083116106da57829003601f168201915b5050505050908060010154908060020160009054906101000a900473ffffffffffffffffffffffffffffffffffffffff16908060030154908060040154908060050160009054906101000a900473ffffffffffffffffffffffffffffffffffffffff16905086565b60046020528060005260406000206000915090505481565b60015481565b600080610788611818565b60008989896040518084805190602001908083835b6020831015156107c2578051825260208201915060208101905060208303925061079d565b6001836020036101000a0380198251168184511680821785525050505050509050018381526020018273ffffffffffffffffffffffffffffffffffffffff1673ffffffffffffffffffffffffffffffffffffffff166c01000000000000000000000000028152601401935050505060405180910390209250600183868989604051600081526020016040526040518085600019166000191681526020018460ff1660ff1681526020018360001916600019168152602001826000191660001916815260200194505050505060206040516020810390808403906000865af115156108ab57600080fd5b50506020604051035173ffffffffffffffffffffffffffffffffffffffff166000809054906101000a900473ffffffffffffffffffffffffffffffffffffffff1673ffffffffffffffffffffffffffffffffffffffff1614151561090e57600080fd5b60011515600260003373ffffffffffffffffffffffffffffffffffffffff1673ffffffffffffffffffffffffffffffffffffffff16815260200190815260200160002060030160009054906101000a900460ff16151514151561097057600080fd5b6000151560056000856000191660001916815260200190815260200160002060009054906101000a900460ff1615151415156109ab57600080fd5b6109b68a8a8a6116a7565b9150610a0b6001600460003373ffffffffffffffffffffffffffffffffffffffff1673ffffffffffffffffffffffffffffffffffffffff1681526020019081526020016000205461177090919063ffffffff16565b905081600360003384604051808373ffffffffffffffffffffffffffffffffffffffff1673ffffffffffffffffffffffffffffffffffffffff166c01000000000000000000000000028152601401828152602001925050506040518091039020600019166000191681526020019081526020016000206000820151816000019080519060200190610a9d929190611881565b506020820151816001015560408201518160020160006101000a81548173ffffffffffffffffffffffffffffffffffffffff021916908373ffffffffffffffffffffffffffffffffffffffff160217905550606082015181600301556080820151816004015560a08201518160050160006101000a81548173ffffffffffffffffffffffffffffffffffffffff021916908373ffffffffffffffffffffffffffffffffffffffff16021790555090505080600460003373ffffffffffffffffffffffffffffffffffffffff1673ffffffffffffffffffffffffffffffffffffffff16815260200190815260200160002081905550600160056000856000191660001916815260200190815260200160002060006101000a81548160ff02191690831515021790555060015489101593503373ffffffffffffffffffffffffffffffffffffffff167f1ae18363def3ec2435717d7f034c6118d1caae2f6cfa260085d2593b8cd03d118b8b87604051808060200184815260200183151515158152602001828103825285818151815260200191508051906020019080838360005b83811015610c58578082015181840152602081019050610c3d565b50505050905090810190601f168015610c855780820380516001836020036101000a031916815260200191505b5094505050505060405180910390a25050509695505050505050565b600660009054906101000a900473ffffffffffffffffffffffffffffffffffffffff1673ffffffffffffffffffffffffffffffffffffffff163373ffffffffffffffffffffffffffffffffffffffff16141515610cfd57600080fd5b60008114151515610d0d57600080fd5b806001819055507f261c83c5299712f179f7e7ecfa195d1e1cc9d3216838a97516668b1d088156f760015482604051808381526020018281526020019250505060405180910390a150565b600660009054906101000a900473ffffffffffffffffffffffffffffffffffffffff1681565b60026020528060005260406000206000915090508060000154908060010160009054906101000a900473ffffffffffffffffffffffffffffffffffffffff1690806002018054600181600116156101000203166002900480601f016020809104026020016040519081016040528092919081815260200182805460018160011615610100020316600290048015610e565780601f10610e2b57610100808354040283529160200191610e56565b820191906000526020600020905b815481529060010190602001808311610e3957829003601f168201915b5050505050908060030160009054906101000a900460ff16905084565b6000610e7d611901565b610e85611901565b60018989896040518084805190602001908083835b602083101515610ebf5780518252602082019150602081019050602083039250610e9a565b6001836020036101000a0380198251168184511680821785525050505050509050018381526020018273ffffffffffffffffffffffffffffffffffffffff1673ffffffffffffffffffffffffffffffffffffffff166c0100000000000000000000000002815260140193505050506040518091039020858888604051600081526020016040526040518085600019166000191681526020018460ff1660ff1681526020018360001916600019168152602001826000191660001916815260200194505050505060206040516020810390808403906000865af11515610fa357600080fd5b50506020604051035173ffffffffffffffffffffffffffffffffffffffff166000809054906101000a900473ffffffffffffffffffffffffffffffffffffffff1673ffffffffffffffffffffffffffffffffffffffff1614151561100657600080fd5b600260003373ffffffffffffffffffffffffffffffffffffffff1673ffffffffffffffffffffffffffffffffffffffff16815260200190815260200160002060806040519081016040529081600082015481526020016001820160009054906101000a900473ffffffffffffffffffffffffffffffffffffffff1673ffffffffffffffffffffffffffffffffffffffff1673ffffffffffffffffffffffffffffffffffffffff168152602001600282018054600181600116156101000203166002900480601f01602080910402602001604051908101604052809291908181526020018280546001816001161561010002031660029004801561114a5780601f1061111f5761010080835404028352916020019161114a565b820191906000526020600020905b81548152906001019060200180831161112d57829003601f168201915b505050505081526020016003820160009054906101000a900460ff1615151515815250509150600015158260600151151514151561118757600080fd5b6111908961178e565b905080600260003373ffffffffffffffffffffffffffffffffffffffff1673ffffffffffffffffffffffffffffffffffffffff1681526020019081526020016000206000820151816000015560208201518160010160006101000a81548173ffffffffffffffffffffffffffffffffffffffff021916908373ffffffffffffffffffffffffffffffffffffffff160217905550604082015181600201908051906020019061123f929190611881565b5060608201518160030160006101000a81548160ff0219169083151502179055509050506000600260003373ffffffffffffffffffffffffffffffffffffffff1673ffffffffffffffffffffffffffffffffffffffff16815260200190815260200160002060000154141592503373ffffffffffffffffffffffffffffffffffffffff167faa8ca4c67181debf5506765bb8e2408f7c9d49a64e87ea8eb2579b5e1f755d9d8a85604051808060200183151515158152602001828103825284818151815260200191508051906020019080838360005b83811015611330578082015181840152602081019050611315565b50505050905090810190601f16801561135d5780820380516001836020036101000a031916815260200191505b50935050505060405180910390a250509695505050505050565b600660009054906101000a900473ffffffffffffffffffffffffffffffffffffffff1673ffffffffffffffffffffffffffffffffffffffff163373ffffffffffffffffffffffffffffffffffffffff161415156113d357600080fd5b600073ffffffffffffffffffffffffffffffffffffffff168173ffffffffffffffffffffffffffffffffffffffff161415151561140f57600080fd5b806000806101000a81548173ffffffffffffffffffffffffffffffffffffffff021916908373ffffffffffffffffffffffffffffffffffffffff1602179055507f319856d273c9bc4c9184c56973901b677b9a7c9fd6cd933b05e5d223ecf5fc816000809054906101000a900473ffffffffffffffffffffffffffffffffffffffff1682604051808373ffffffffffffffffffffffffffffffffffffffff1673ffffffffffffffffffffffffffffffffffffffff1681526020018273ffffffffffffffffffffffffffffffffffffffff1673ffffffffffffffffffffffffffffffffffffffff1681526020019250505060405180910390a150565b6000809054906101000a900473ffffffffffffffffffffffffffffffffffffffff1681565b60056020528060005260406000206000915054906101000a900460ff1681565b600660009054906101000a900473ffffffffffffffffffffffffffffffffffffffff1673ffffffffffffffffffffffffffffffffffffffff163373ffffffffffffffffffffffffffffffffffffffff161415156115ab57600080fd5b600073ffffffffffffffffffffffffffffffffffffffff168173ffffffffffffffffffffffffffffffffffffffff16141515156115e757600080fd5b8073ffffffffffffffffffffffffffffffffffffffff16600660009054906101000a900473ffffffffffffffffffffffffffffffffffffffff1673ffffffffffffffffffffffffffffffffffffffff167f8be0079c531659141344cd1fd0a4f28419497f9722a3daafe3b4186f6b6457e060405160405180910390a380600660006101000a81548173ffffffffffffffffffffffffffffffffffffffff021916908373ffffffffffffffffffffffffffffffffffffffff16021790555050565b6116af611818565b8381600001819052508281602001818152505081816040019073ffffffffffffffffffffffffffffffffffffffff16908173ffffffffffffffffffffffffffffffffffffffff1681525050600154816060018181525050428160800181815250506000809054906101000a900473ffffffffffffffffffffffffffffffffffffffff168160a0019073ffffffffffffffffffffffffffffffffffffffff16908173ffffffffffffffffffffffffffffffffffffffff16815250509392505050565b600080828401905083811015151561178457fe5b8091505092915050565b611796611901565b428160000181815250506000809054906101000a900473ffffffffffffffffffffffffffffffffffffffff16816020019073ffffffffffffffffffffffffffffffffffffffff16908173ffffffffffffffffffffffffffffffffffffffff16815250508181604001819052506001816060019015159081151581525050919050565b60c06040519081016040528061182c611948565b815260200160008152602001600073ffffffffffffffffffffffffffffffffffffffff1681526020016000815260200160008152602001600073ffffffffffffffffffffffffffffffffffffffff1681525090565b828054600181600116156101000203166002900490600052602060002090601f016020900481019282601f106118c257805160ff19168380011785556118f0565b828001600101855582156118f0579182015b828111156118ef5782518255916020019190600101906118d4565b5b5090506118fd919061195c565b5090565b60806040519081016040528060008152602001600073ffffffffffffffffffffffffffffffffffffffff168152602001611939611948565b81526020016000151581525090565b602060405190810160405280600081525090565b61197e91905b8082111561197a576000816000905550600101611962565b5090565b905600a165627a7a7230582046cdd338bdc9ddab6e7d18cb5bd0712920c8db0be712c01ef6c4ea1050bcef0d0029",
  "source": "pragma solidity 0.4.21;\n\nimport \"./HumanIdentityInterface.sol\";\nimport \"./zeppelin/ownership/Ownable.sol\";\nimport \"./zeppelin/math/SafeMath.sol\";\n\n\n/**\n* @title HumanIdentityToken\n* @author Adam Gall (adam@decentcrypto.com)\n* @notice HumanIdentityToken is a generic implementation of the HumanIdentityInterface.\n* This implementation provides a recommended approach for implementing\n* the `register` and `verify` functions, along with simple\n*/\ncontract HumanIdentityBasic is HumanIdentityInterface, Ownable {\n  using SafeMath for uint;\n\n  /**\n  * @notice Receive biometrically verified payload and signature \n  * from offchain oracle, along with `to` recipient, and \n  * number of tokens to transfer.\n  * @param oracleNonce Unique identifier from offchain oracle identity provider\n  * @param confidenceResult Confidence level returned by the identity provider\n  * @param user Public address of the user verifyting their transaction\n  * @param r Signature data\n  * @param s Signature data\n  * @param v Signature data\n  */\n  function register(\n    string oracleNonce,\n    uint confidenceResult,\n    address user,\n    bytes32 r,\n    bytes32 s,\n    uint8 v\n  )\n  public\n  returns (bool success) \n  {\n    require(identityProvider == ecrecover(keccak256(oracleNonce, confidenceResult, user), v, r, s));\n\n    Registration memory existingRegistration = registrations[msg.sender];\n    require(existingRegistration.registered == false);\n\n    Registration memory registration = generateRegistration(oracleNonce);\n\n    registrations[msg.sender] = registration;\n    success = registrations[msg.sender].timestamp != 0;\n\n    emit RegisterUser(msg.sender, oracleNonce, success);\n  }\n\n  /**\n  * @notice Receive biometrically verified payload and signature from offchain oracle, \n  * along with `to` recipient, and number of tokens to transfer.\n  * A user may call this method multiple times after `register`ing.\n  * @dev This function reverts if the data being passed in does not have a valid signature\n  * from the private key of the contract's `identityProvider`.\n  * It also reverts if the sender has not yet `register`ed on the contract\n  * It also reverts if the input data has been successfully used in a validation.\n  * @param oracleNonce Unique identifier from offchain oracle identity provider\n  * @param confidenceResult Confidence level returned by the identity provider\n  * @param user Public address of the user verifyting their transaction\n  * @param r Signature data\n  * @param s Signature data\n  * @param v Signature data\n  * @return Whether or not the verification's `confidenceResult` was above the contract's threshold\n  */\n  function verify(\n    string oracleNonce,\n    uint confidenceResult,\n    address user,\n    bytes32 r,\n    bytes32 s,\n    uint8 v\n  )\n  public\n  returns (bool success)\n  {\n    bytes32 dataHash = keccak256(oracleNonce, confidenceResult, user);\n\n    require(identityProvider == ecrecover(dataHash, v, r, s));\n    require(registrations[msg.sender].registered == true);\n    require(verificationAttempts[dataHash] == false);\n\n    Verification memory verification = generateVerification(oracleNonce, confidenceResult, user);\n\n    uint newCount = verificationCounts[msg.sender].add(1);\n    verifications[keccak256(msg.sender, newCount)] = verification;\n    verificationCounts[msg.sender] = newCount;\n\n    verificationAttempts[dataHash] = true;\n\n    success = confidenceResult >= confidenceThreshold;\n    emit VerifyUser(msg.sender, oracleNonce, confidenceResult, success);\n  }\n\n  /**\n  * @notice OnlyOwner method to update the contract's `identityProvider`\n  * @param newIdentityProvider New offchain identity provider address\n  */\n  function updateIdentityProvider\n  (\n    address newIdentityProvider\n  )\n  public\n  onlyOwner\n  {\n    require(newIdentityProvider != address(0));\n    identityProvider = newIdentityProvider;\n    emit IdentityProviderUpdated(identityProvider, newIdentityProvider);\n  }\n\n  /**\n  * @notice OnlyOwner method to update the contract's `confidenceThreshold`\n  * @param newThreshold New offchain identity provider address\n  */\n  function updateConfidenceThreshold\n  (\n    uint newThreshold\n  )\n  public\n  onlyOwner\n  {\n    require(newThreshold != 0);\n    confidenceThreshold = newThreshold;\n    emit ConfidenceThresholdUpdated(confidenceThreshold, newThreshold);\n  }\n\n  /**\n  * @notice Generates and returns a new `Registration` struct, given\n  * `oracleNonce`, the contract's `identityProvider`, and the block's timestamp\n  * @param oracleNonce Unique identifier from offchain oracle identity provider\n  */\n  function generateRegistration\n  (\n    string oracleNonce\n  )\n  private\n  view\n  returns (Registration registration)\n  {\n    registration.timestamp = block.timestamp;\n    registration.identityProvider = identityProvider;\n    registration.oracleNonce = oracleNonce;\n    registration.registered = true;\n  }\n\n  /**\n  * @notice Generates and returns a new `Verification` struct, given\n  * `oracleNonce`, `confidenceResult`, `user` (all from the offchain oracle's\n  * signed data), the contract's `identityProvider` and `confidenceThreshold,\n  * and the block's timestamp.\n  * @param oracleNonce Unique identifier from offchain oracle identity provider\n  * @param confidenceResult Confidence level returned by the identity provider\n  * @param user Public address of the user verifyting their transaction\n  */\n  function generateVerification\n  (\n    string oracleNonce,\n    uint confidenceResult,\n    address user\n  )\n  private\n  view\n  returns (Verification verification)\n  {\n    verification.oracleNonce = oracleNonce;\n    verification.confidenceResult = confidenceResult;\n    verification.user = user;\n    verification.threshold = confidenceThreshold;\n    verification.timestamp = block.timestamp;\n    verification.identityProvider = identityProvider;\n  }\n}",
  "sourcePath": "/Users/train/Documents/Work/Decent/kairos/wallet/contracts/HumanIdentity/HumanIdentityBasic.sol",
  "compiler": {
    "name": "solc",
    "version": "0.4.21+commit.dfe3193c.Emscripten.clang"
  },
  "schemaVersion": "2.0.0",
  "updatedAt": "2018-04-28T20:35:34.308Z"
}